:020000040800F2
:100000003807002039020008F31A000871160008AA
:10001000F11A00082F040008311F0008000000003A
:10002000000000000000000000000000591B000854
:100030004704000800000000F51A00085B1B0008D8
:10004000530200085302000853020008530200083C
:10005000530200085302000853020008530200082C
:100060004904000853020008530200085302000824
:10007000530200085302000853020008530200080C
:100080005302000853020008530200080000000059
:100090000000000000000000000000005302000803
:1000A000530200085302000853020008011C000814
:1000B00053020008530200085302000853020008CC
:1000C00053020008530200085302000853020008BC
:1000D0005302000853020008530200080000000009
:1000E00053020008530200085302000800000000F9
:1000F00000000000000000000000000053020008A3
:1001000000000000530200085302000853020008D8
:1001100000000000000000000000000000000000DF
:10012000530200085302000853020008530200085B
:100130005302000800000000000000000000000062
:100140000000000000000000000000005302000852
:10015000530200085302000853020008530200082B
:1001600053020008530200080000000000000000D5
:10017000000000000000000000000000000000007F
:100180000000000053020008000000000000000012
:10019000530200085302000800F002F800F03CF897
:1001A0000AA090E8000C82448344AAF10107DA45D2
:1001B00001D100F031F8AFF2090EBAE80F0013F0E8
:1001C000010F18BFFB1A43F0010318477823000002
:1001D00098230000103A24BF78C878C1FAD8520793
:1001E00024BF30C830C144BF04680C6070470000B1
:1001F0000023002400250026103A28BF78C1FBD830
:10020000520728BF30C148BF0B6070471FB502F0CE
:100210008BF91FBD10B510BD00F0CFF81146FFF7E8
:10022000F5FF01F0B1FE00F0EDF803B4FFF7F2FFC7
:1002300003BC00F0F5F80000094880470948004772
:10024000FEE7FEE7FEE7FEE7FEE7FEE7FEE7FEE786
:10025000FEE7FEE704480549054A064B70470000E3
:10026000F11B000899010008380100203807002020
:10027000380300203803002053EA020C00F06980A4
:100280002DE9F04B4FF00006002B1FBFB3FA83F5AA
:1002900003FA05F424FA05F65E4012BF1643B2FADB
:1002A00082F502FA05F4C5F120051EBF22FA05FC0D
:1002B00044EA0C04203556EA044C4FEA144418BFB3
:1002C000641C4FF000084FF00009904271EB030CE2
:1002D00039D3002919BFB1FA81F701FA07F6B0FA4C
:1002E00080F700FA07F6C7F120071EBF20FA07FCC7
:1002F00046EA0C062037B6FBF4FCA7EB0507103FD7
:1003000007F01F0BCBF120060CFA0BFB2CFA06F6BC
:1003100044BFB3460026202FA4BF5E464FF0000B1B
:100320005BEA060C08BF4FF0010B19EB0B09ABFBA6
:10033000027C48EB0608C01B06FB02CC0BFB03CC7F
:1003400071EB0C01C1E70B46024641464846BDE849
:10035000F08B13B54FF000004FF00001AFF30080B9
:10036000BDE81C4070474FF0000200B513469446AC
:100370009646203922BFA0E80C50A0E80C50B1F1FD
:100380002001BFF4F7AF090728BFA0E80C5048BF11
:100390000CC05DF804EB890028BF40F8042B08BFAF
:1003A000704748BF20F8022B11F0804F18BF00F8AB
:1003B000012B7047704770477047754600F02CF866
:1003C000AE4605006946534620F00700854618B042
:1003D00020B5FFF73FFFBDE820404FF000064FF08B
:1003E00000074FF000084FF0000B21F00701AC466A
:1003F000ACE8C009ACE8C009ACE8C009ACE8C00989
:100400008D46704710B50446AFF300802046BDE826
:100410001040FFF70ABF000000487047D4000020DA
:1004200001491820ABBEFEE7260002007047FEE738
:1004300000B50021084601F085F9002108465DF865
:1004400004EB01F059BB7047042000F03FB872B6CE
:10045000FEE7000070B5044600F03EF90546601C5A
:1004600002D004480078044400F036F9401BA04252
:10047000FAD370BD3400002070B5042822D1840165
:10048000114D00222146284600F021F94FF416763E
:100490003046FFF7DFFF01222146284600F017F91A
:1004A0003046FFF7D7FF00222146284600F00FF91B
:1004B0003046FFF7CFFF21462846BDE870400122B5
:1004C00000F005B970BD000000040240044910B5F9
:1004D0000A68024202D00860FFF7CEFF10BD00009C
:1004E000143C01402DE9F84FDFF8B8A100220124A7
:1004F0000AF1040B03254FF00F090BF1040E00BFA6
:100500000B6804FA02F63340B34273D10F7907F057
:100510000307012F01D0022F16D187684FEA420846
:1005200005FA08FC27EA0C07D1F80CC00CFA08FC05
:100530004CEA070CC0F808C04768B7430E79C6F309
:10054000001696403E4346600E79F643B6070DD03E
:10055000C768560005FA06FC27EA0C07D1F808C060
:100560000CFA06FC4CEA070CC0F80CC00E7906F039
:100570000306022E10D1D60800EB8608D8F82060BA
:1005800057074FEAD76C09FA0CF7BE430F6907FA11
:100590000CF73743C8F8207006684FEA420C05FA9A
:1005A0000CF7BE430F7907F0030707FA0CF7374340
:1005B00007604E6816F4403F6DD03B4E376847F4F5
:1005C00080473760366822F0030706F480460096BD
:1005D000364E07EB060CDCF8086897073F0F09FA60
:1005E00007F826EA0806DFF8C880404503D14FF037
:1005F00000081EE04FE0DFF8BC80404502D14FF01C
:10060000010816E0DFF8B080404502D14FF0020843
:100610000FE0DFF8A880404502D14FF0030808E062
:10062000DFF89C80404502D14FF0040801E04FF014
:10063000070808FA07F848EA0608CCF80888DAF844
:1006400000605746D1F804C09E435FEACC3C00D519
:100650001E433E60DBF800605F46D1F804C09E4355
:100660005FEA8C3C00D51E433E60DEF800607746B2
:10067000D1F804C09E435FEACC2C00D51E433E60F7
:10068000084F0C373E68D1F804C09E435FEA8C2CBB
:1006900000D51E433E60521C102AFFF431AFBDE866
:1006A000F88F0000003C0140443802400030014017
:1006B000000002400004024000080240000C02401A
:1006C000001002400069084000D0012070470AB1C4
:1006D000816170470904FBE70148806870470000AA
:1006E000340000200248816802781144816070471C
:1006F000340000200B4810B5016841F4007101601E
:10070000016841F480610160016841F48071016019
:10071000032000F06FF8052000F006F800F024F840
:10072000002010BD003C024070B50D4D04464FF452
:100730007A712878B1FBF0F00A490968B1FBF0F052
:1007400000F0EAFA48B9102C07D200222146501EC8
:1007500000F030F800206C6070BD012070BD00001A
:1007600034000020400000200A4808B5016841F428
:1007700080410160006800F4804000900548001F3F
:10078000016841F080510160006800F080500090E5
:1007900008BD000044380240002809DB00F01F02B9
:1007A000012191404009800000F1E020C0F80011D3
:1007B00070470000F0B40E4B1B680C46C3F30223D5
:1007C000C3F10705042D00D90425191D072901D2FD
:1007D000002300E0DB1E012606FA05F1491E214038
:1007E00099409E40761E16403143F0BC01F0A1BBFB
:1007F0000CED00E0064900F0070208684FF6FF0321
:10080000184040EA0220034A104308607047000085
:100810000CED00E00000FA052DE9F0470E4605005A
:1008200065D0DFF81481D8F80000F7B200F00700B7
:10083000B04207D288F80070D8F8000000F0070036
:10084000B04254D128683D4C810712D5400703D5EA
:10085000206840F4E05020602878000703D5206825
:1008600040F4604020602068A96820F0F000084350
:1008700020602878C0072DD03049686808390128E1
:1008800012D0022813D0032811D009688907002943
:100890002DDA216821F0030101432160FFF71CFFDD
:1008A000814641F2883A0EE009688903EFE709685A
:1008B0008901ECE7FFF710FFA0EB0901514502D9D0
:1008C0000320BDE8F0872068696800F00C00B0EBF9
:1008D000810FEFD1D8F80010404601F00701B14276
:1008E00007D90770006800F00700B04201D001206E
:1008F000E7E72878400705D52068E96820F4E0504C
:10090000084320602878000706D52068296920F46C
:10091000604040EAC100206000F018F82168084AF1
:10092000C1F30311515CC8400649086006480068DD
:10093000FFF7FAFE0020C4E7003C024008380240FE
:10094000322500084000002038000020154810B56E
:10095000006810F00C02144813D04110042A0FD084
:10096000082A0ED10F4C241F2268236802F03F0290
:100970005B0207D52068C0F38810A0FB010106E0E8
:10098000084610BD2168C1F38811A1FB00010023B6
:10099000FFF772FC2168C1F30141491C4900B0FB1B
:1009A000F1F010BD083802400024F4002DE9F84FA2
:1009B00004006ED02078DFF84C93C007A9F104053D
:1009C0004AD009F104000168C1F38101012908D06E
:1009D0000068C0F3810002280AD1D9F80000400263
:1009E00006D52868800337D560680028E1D033E059
:1009F0006068B0F5803F10D0B0F5A02F286810D007
:100A000020F480302860286820F480202860606806
:100A1000A8B1FFF761FE06460DE0286840F480307B
:100A2000F4E740F480202860F7E700BFFFF754FEAA
:100A3000801B642873D828688003F7D50CE0FFF783
:100A40004BFE064605E000BFFFF746FE801B64280C
:100A5000F0D828688003F7D42078DFF8AC828007CC
:100A60004FF0000A3ED5A748001D016811F00C0F99
:100A700008D00068C0F3810002280BD1D9F800002B
:100A8000400207D42868800716D5E068012800D105
:100A900012E033E1E068B8B10120C8F80000FFF7C8
:100AA0001BFE064605E000BFFFF716FE801B02286E
:100AB000C0D828688007F7D52868216920F0F80099
:100AC00040EAC10028600DE0C8F800A0FFF704FE6E
:100AD000064604E0FFF700FE801B02281FD82868A6
:100AE0008007F7D42078000722D5864F87486169B0
:100AF000703771B101210160FFF7EEFD064604E099
:100B0000FFF7EAFD801B022809D838688007F7D56F
:100B10000EE0C0F800A0FFF7DFFD064605E082E02A
:100B2000FFF7DAFD801B02287DD838688007F7D4EC
:100B30002078400768D5DFF8CCB100270BF13C0BDB
:100B4000DBF80000C0000BD4DBF8001041F080514E
:100B5000CBF80010DBF80000012700F08050009077
:100B60006B4E3068C00510D4306840F4807030603F
:100B7000FFF7B2FD009005E0FFF7AEFD0099401AC7
:100B8000022850D83068C005F6D55E4EA0686C3695
:100B900001280FD00528306810D020F00100306007
:100BA000306820F004003060A068B8B1FFF794FD11
:100BB00000900FE0306840F00100F4E740F00400DE
:100BC0003060F7E7FFF788FD0099411A41F288305D
:100BD000814266D830688007F4D50EE0FFF77CFDCF
:100BE000009007E0FFF778FD0099411A41F2883044
:100BF000814256D830688007F4D42FB1DBF800105A
:100C000021F08051CBF80010A069C8B33D49091DFF
:100C10000968C1F3810102294AD00228504607D051
:100C2000C8F8600000E03CE0FFF756FD04463BE0FA
:100C30004746C8F86000FFF74FFD064605E000BFD5
:100C4000FFF74AFD801B02282BD828688001F7D4C3
:100C5000D4E907010843A16A2E4A490802EB014181
:100C6000626A41EA8211084394F82C1040EA01615B
:100C7000C9F8001001203866FFF72EFD044606E093
:100C80003EE000BFFFF728FD001B022809D82868B6
:100C90008001F7D534E000BFFFF71EFD001B0228DE
:100CA00002D90320BDE8F88F28688001F4D427E03A
:100CB0000128F7D0D9F80000E26900F480019142E0
:100CC0001CD1226A00F03F01914217D147F6C07152
:100CD000626A0140B1EB821F10D1A26A4FF0FF336C
:100CE00000F4403103EB5202B1EB024F06D194F80D
:100CF0002C1000F07060B0EB016F01D00120D1E743
:100D00000020CFE70438024000004742800E4742EF
:100D1000007000400000FFFF10B5401EB0F1807F62
:100D200001D3012010BD4FF0E02460610F21601756
:100D300001F0FFF80020A06107202061002010BD15
:100D40007047704770B590F83C20012A2CD00124E0
:100D500080F83C40022280F83D2003685A689D6874
:100D600022F070060A6832435A60104B02689A42B9
:100D70000ED0B2F1804F0BD00D4B9A4208D00D4BE4
:100D80009A4205D00C4B9A4202D00C4B9A4204D1A5
:100D9000496825F080031943916080F83D400021A7
:100DA00080F83C10084670BD022070BD0000014074
:100DB0000004004000080040000C004000400140DA
:100DC00010B5040003D094F83D0010B107E00120F5
:100DD00010BD002084F83C00204600F01FF80220DF
:100DE00084F83D00211D206800F010FF012084F8E8
:100DF000460084F83E0084F83F0084F8400084F800
:100E0000410084F8420084F8430084F8440084F8E8
:100E1000450084F83D00002010BD000010B586B0EC
:100E2000044614216846FFF79EFA1E49206888424E
:100E300029D11D48016841F001010160006800F0FE
:100E40000100059018481438016841F00101016063
:100E50000068694600F0010005904FF400700090B2
:100E60000220019002900390012004900F48FFF7A8
:100E700039FB002203211B20FFF79CFC1B20FFF7FE
:100E80008BFC06B010BDB0F1804FFAD10648001FB0
:100E9000016841F001010160006800F00100059067
:100EA000EFE700000000014044380240000002402B
:100EB00070B5044690F83C000025012817D00126A3
:100EC00084F83C60022084F83D002068826822F0AB
:100ED000770222F47F4282600868502838D00DDC07
:100EE00020284FD005DC90B3102811D14AE0022011
:100EF00070BD302846D040280AD13BE060282FD072
:100F000070280DD0B0F5805F03D0B0F5005F12D02F
:100F1000012584F83D60002084F83C00284670BD1F
:100F2000CB68D1E90121206800F0C9FE2068816802
:100F300041F0770109E0CB68D1E90121206800F098
:100F4000BEFE2068816841F480418160E1E719E0DC
:100F5000CA684968206800F067FF5021206806E0F1
:100F6000CA684968206800F0A7FF6021206800F087
:100F7000B0FECEE7CA684968206800F055FF4021FE
:100F80002068F4E7226801461046F0E770B51E4C71
:100F90002078010612D41D4D410610D540F0800086
:100FA00020700421284600F04DFB60802868016A0B
:100FB00021F0A00101622868016A016270BD002170
:100FC0006180402020702868026A41F211131A42A1
:100FD00007D1026A9B101A4203D1026822F0010273
:100FE0000260286841622868016A21F0A00101625C
:100FF0002868016A41F0200101622868016841F017
:101000000101016070BD000030000020440000209C
:101010002DE9F041054690F83C0000260C460128D9
:1010200010D0012085F83C0072B1042A1CD0082A97
:101030002CD00C2A50D00126002085F83C003046E8
:10104000BDE8F0810220FBE7D4E90012E3682868DC
:1010500000F0FCFE2868816921F00C01816128689C
:101060008169A26811430FE0D4E90012E36828689F
:1010700000F034FF2868816921F4406181612868AB
:101080008169A26841EA02218161D5E72868D4E933
:10109000002C277B016A21F480710162C169036A17
:1010A00021F0030141EA0C0121F0F00C39074FF463
:1010B00020674CEA116123F4206307EA02221A43F5
:1010C000C16102622868C16921F00C01C161286810
:1010D000C169A268114328E02868D4E90027E168C3
:1010E000036A23F480530362D0F81CC0036A2CF413
:1010F000407C4CEA07274FF6FF7C27F470470CEA48
:10110000013139434FF4204723F4204307EA0232E8
:101110001A43C16102622868C16921F44061C1615A
:101120002868C169A26841EA0221C16184E710B55B
:10113000040003D094F83D0010B107E0012010BD79
:10114000002084F83C00204600F01EF8022084F8BD
:101150003D00211D206800F059FD012084F8460063
:1011600084F83E0084F83F0084F8400084F8410091
:1011700084F8420084F8430084F8440084F8450071
:1011800084F83D00002010BD7047000030B50446D3
:10119000002551B104290DD0082910D094F8412020
:1011A00094F84500012A11D10EE094F83E2094F8FD
:1011B0004200F7E794F83F2094F84300F2E794F8F0
:1011C000402094F84400EDE7012801D0012030BD13
:1011D000022059B1042912D0082919D084F84100FD
:1011E00084F845000C293ED001253AE084F83E0001
:1011F00084F842002068C26842F0020210E084F8DD
:101200003F0084F843002068C26842F0040207E00F
:1012100084F8400084F844002068C26842F0080264
:10122000C2600122206800F03DFD1149206888421B
:101230000ED0B0F1804F0BD00E49884208D00E4935
:10124000884205D00D49884202D00D49884204D118
:10125000816801F00701062903D0016841F001010E
:101260000160284630BD2068C26842F01002D7E70E
:10127000000001400004004000080040000C004055
:101280000040014070B50446006801694FF0000558
:10129000C943890715D4C168C943890711D4E91E18
:1012A000016101202077206880698007204602D0F4
:1012B000FFF76CFE04E000F0C1F8204600F053F99F
:1012C000257720680169C943490717D4C168C94314
:1012D000490713D46FF004010161022020772068D0
:1012E000806910F4407F204602D0FFF74FFE04E0F3
:1012F00000F0A4F8204600F036F92577206801694F
:10130000C943090716D4C168C943090712D46FF04D
:1013100008010161042020772068C0698007204609
:1013200002D0FFF733FE04E000F088F8204600F01A
:101330001AF9257720680169C943C90617D4C1681D
:10134000C943C90613D46FF010010161082020774A
:101350002068C06910F4407F204602D0FFF716FED7
:1013600004E000F06BF8204600F0FDF825772068D7
:101370000169C943C90708D1C168C943C90704D174
:10138000891E0161204600F047F920680169C943C0
:10139000090609D4C168C943090605D46FF0800164
:1013A00001612046FFF7CCFC20680169C94349066A
:1013B00009D4C168C943490605D46FF040010161F1
:1013C000204600F054F920680169C94389060BD40E
:1013D000C168C943890607D46FF020010161204626
:1013E000BDE87040FFF7ADBC70BD000010B586B021
:1013F000044614216846FEF7B6FF2068B0F1804F1E
:1014000015D10C480021026842F001020260006818
:1014100000F0010005900F2000900220CDE90101AD
:101420000120CDE9031069460348FFF75BF806B0D9
:1014300010BD00003038024000000240704770B517
:10144000044690F83C0000260D4601280FD00120EC
:1014500084F83C006AB1042A1DD0082A2FD00C2A37
:101460003FD00126002084F83C00304670BD0220A9
:1014700070BD206800F036FC2068816941F00801E9
:1014800081612068816921F004018161206881699E
:101490002A69114311E0206800F04CFC2068816942
:1014A00041F4006181612068816921F4806181617A
:1014B000206881692A6941EA02218161D2E72068B6
:1014C00000F064FC2068C16941F00801C161206836
:1014D000C16921F00401C1612068C1692A69114311
:1014E00011E0206800F07EFC2068C16941F40061D1
:1014F000C1612068C16921F48061C1612068C1694E
:101500002A6941EA0221C161ACE710B5040003D0A9
:1015100094F83D0010B107E0012010BD002084F8D0
:101520003C00204600F01EF8022084F83D00211DFA
:10153000206800F06BFB012084F8460084F83E0030
:1015400084F83F0084F8400084F8410084F84200A9
:1015500084F8430084F8440084F8450084F83D0092
:10156000002010BD7047704710B50446022249B1F3
:1015700004290ED0082913D094F84100012816D070
:10158000012010BD94F83E000128F9D184F83E20D6
:101590000FE094F83F000128F2D184F83F2008E0E2
:1015A00094F840000128EBD184F8402001E084F851
:1015B00041200122206800F075FB12492068884212
:1015C00003D1426C42F400424264206888420ED04B
:1015D000B0F1804F0BD00C49884208D00B498842AB
:1015E00005D00B49884202D00A49884204D181685B
:1015F00001F00701062903D0016841F001010160F3
:10160000002010BD00000140000400400008004020
:10161000000C00400040014009490878020606D449
:10162000420604D5C243920602D0401C087070479F
:1016300040F0800008704FF6FF704880704700004F
:10164000300000200246002041B1042909D00829B9
:101650000AD00C2901D11068006C70471068406BEB
:1016600070471068806B70471068C06B7047704798
:10167000FEE7000070B5072405460A260120FEF7A4
:10168000E9FEB5FBF6F006FB1050062C0AD00B491C
:10169000085CE1B200F034F8B5FBF6F500F010F8A4
:1016A0002DB106E005491231085C0621F2E7072C4E
:1016B00003DB641E64B2002CE0DA70BD040000207D
:1016C00010B5064C0120C4F89002052004F52474DE
:1016D00000F040FC0020206010BD0000008040426F
:1016E000064900F00102C1F8A822C0F34002C1F887
:1016F000AC22C0F38000C1F8B00270470000414244
:101700002DE9F04700240E4D8946064627464FF046
:10171000010800BF26FA04F000F00100C5F88C02B1
:10172000C5F89472052000F015FCC5F89482641C7D
:10173000E4B2082CEED34846BDE8F047FFF7D0BF2F
:1017400000804042024A1368586310688163704702
:101750008C00002010B54FF4487400212046FFF79C
:10176000F1FF2046BDE81040002100F0C5B900009F
:101770002DE9F04F87B014216846FEF7F4FD534879
:101780000025016841F004010160016801F00401D5
:101790000591016841F080010160016801F080015C
:1017A0000591016841F001010160016801F001014A
:1017B0000591016841F002010160016801F0020138
:1017C0000591016841F0080101600068DFF800A19F
:1017D00000F0080041F60F460590012231465046C0
:1017E000FEF775FFDFF8ECB04FF480680122414648
:1017F0005846FEF76CFF4FF49C7901224946364863
:10180000FEF765FF4FF40050CDE90005022469465C
:1018100002945046FEF766FE00960126CDE902646A
:10182000694650460196FEF75DFEC020CDE90005F1
:10183000694602945846FEF755FE04274FF4881077
:101840000097CDE9010469462348FEF74BFE4FF4AB
:10185000C060CDE90005694602941F48FEF742FECC
:101860004FF44070CDE90005694650460295FEF7F9
:1018700039FE4FF40140CDE900056946584602950E
:10188000FEF730FECDF80080CDE901646946584688
:101890000394FEF727FE0097CDE9015469460F48EF
:1018A000FEF720FECDE90096CDE9026469460A48BC
:1018B000FEF718FE082100220846FEF77BFF0820ED
:1018C000FEF76AFF07B0BDE8F08F00003038024035
:1018D000000802400000024000040240000C0240E8
:1018E00010B58AB000242348049405940694079404
:1018F000089409940094019402941D490394016092
:101900005F21C0E901144FF6FE71C0E90314802184
:10191000C0E90541FFF754FA08B1FEF798FD4FF40E
:101920008050049004A91348FFF7C2FA08B1FEF7EB
:101930008EFD1048FFF7FBFB08B1FEF788FD089409
:1019400008A90C480994FFF7FDF908B1FEF77FFDDF
:101950000120CDE900400294042269460548039421
:10196000FFF756FB002801D0FEF771FD0AB010BD4D
:10197000000001404400002010B58EB00024079400
:10198000089409940A940B941C2168460C94FEF761
:10199000EAFC34484FF0804101600321C0E90114A2
:1019A00040F2BF31C0E9031480218161FFF708FADA
:1019B00008B1FEF74CFD4FF48050079007A9294865
:1019C000FFF776FA08B1FEF742FD2648FFF79DFDC6
:1019D00008B1FEF73CFD0B940BA922480C94FFF7CD
:1019E000B1F908B1FEF733FD6020CDE9000402949F
:1019F000002269461B480494FFF721FD08B1FEF759
:101A000026FD042269461748FFF719FD08B1FEF7C5
:101A10001EFD082269461348FFF711FD08B1FEF7C5
:101A200016FD0C2269460F48FFF709FD08B1FEF7C5
:101A30000EFD0C48FFF7DAFC00210A48FFF794FD81
:101A400004210848FFF790FD08210648FFF78CFDA8
:101A50000C210448FFF788FD0248FFF7C7FC0EB0D1
:101A600010BD00008C00002070B50122194D9402B9
:101A700021462846FEF72BFE142000F06BFA0022C8
:101A800021462846FEF723FE134D287801061DD572
:101A900000F03F00114AC10F090441EA10411288C9
:101AA000000400248018614100F0EEFB9FED0C1B48
:101AB00053EC112B00F03AFC9FED0B1B53EC112B58
:101AC00000F034FC00F0B2FB2C7070BD4FF47A7063
:101AD00070BD0000000002403000002032000020F5
:101AE000C3F5285C8FC2D53F000000000000E03F36
:101AF000FEE7FEE770470000024A1368D8631068EB
:101B0000016470478C00002010B5114C00220821A0
:101B10002046FEF7DCFD002220212046FEF7D7FDFF
:101B2000012210212046FEF7D2FD2115094C00228A
:101B30002046FEF7CCFD0022E1142046FEF7C7FD4B
:101B40000022A1142046BDE81040FEF7C0BD0000F1
:101B500000040240000802407047FEF7C3BD0000C9
:101B600030B593B030216846FEF7FDFB14210CA878
:101B7000FEF7F9FB1C480025016841F08051016027
:101B8000006800F0805011901848016841F440410D
:101B900001600068022400F4404011900120009090
:101BA000000401908001CDE9064008AA04206021CC
:101BB00082E813000B906846FEF7F8FE08B172B693
:101BC000FEE70CA90F2081E831004FF48050CDE9E9
:101BD0000F0503210CA8FEF71FFE002801D072B6E6
:101BE000FEE713B030BD00004038024000700040F6
:101BF0000248016841F470010160704788ED00E01F
:101C00000148FFF73FBB000044000020F0B5026828
:101C10001D4B1E4C9F031E4D1E4E984207D0B842CE
:101C200005D0A04203D0A84201D0B04204D122F096
:101C3000700C4A6842EA0C02984210D0B8420ED0AA
:101C4000A0420CD0A8420AD0B04208D0124CA04208
:101C500005D0124CA04202D0114CA04203D122F474
:101C60004074CA6822434C6922F080022243026019
:101C70008A68C2620A688262984201D10969016376
:101C800001214161F0BD000000000140000400405E
:101C900000080040000C00400040014000440140AA
:101CA0000048014010B501F01F030121046A99406A
:101CB0008C430462016A9A401143016210BD10B561
:101CC000846842EA032224F47F440A432243826068
:101CD00010BD826822F070020A4342F00701816061
:101CE0007047000030B5026A22F001020262026A07
:101CF0004368846924F073050C682C4322F00205C4
:101D00008A682A430A4DA8420BD122F00805CA6806
:101D100023F440732A434D6922F004021D438B696A
:101D20002B434360846149684163026230BD000017
:101D30000000014030B5026A22F010020262026A1D
:101D4000436884690D6824F4E64444EA05248D68F8
:101D500022F0200242EA05120B4DA8420ED1CD68B6
:101D600022F0800242EA05124D6923F4406343EAFF
:101D700085038D6922F0400243EA85034360846154
:101D800049688163026230BD0000014030B5026ADB
:101D900022F480720262036A4268C46923F4007309
:101DA00024F073050C682C438D6843EA05230C4D21
:101DB000A8420ED1CD6823F4006343EA05234D69A0
:101DC00022F4405242EA05128D6923F4806342EA0C
:101DD00005124260C4614968C163036230BD0000FE
:101DE0000000014030B5026A22F480520262046AA7
:101DF0004268C3690D6823F4E64343EA05238D680E
:101E000024F4005444EA0534064DA84204D14D6937
:101E100022F4804242EA85124260C361496801644B
:101E2000046230BD0000014010B5036A046A24F06A
:101E300001040462846924F0F00444EA021423F0EB
:101E40000A020A438461026210BD000070B5046A90
:101E500024F0010404628469056A124EB0420ED077
:101E6000B0F1804F0BD0104EB04208D00F4EB042B0
:101E700005D00F4EB04202D00E4EB04203D124F036
:101E80000304144301E044F001041A0724F0F004B1
:101E900044EA126225F00A0301F00A011943826143
:101EA000016270BD000001400004004000080040D5
:101EB000000C00400040014010B5036A23F01003FD
:101EC00003628369046A23F4704343EA023224F014
:101ED000A00343EA01118261016210BD30B5046ABA
:101EE00024F0100404628469056A24F4407444EA0E
:101EF000022222F470444FF6FF7202EA03322243B8
:101F0000A02425F0A00304EA0111194382610162B3
:101F100030BD000010B504210448FFF737F903482D
:101F20000068C16841F00101C16010BD440000209B
:101F3000FEE70907090E002804DB00F1E02080F825
:101F40000014704700F00F0000F1E02080F8141D2D
:101F50007047000070B54FF0E02400226569094920
:101F6000A36909684843A1699942FCD002D2A3EB56
:101F7000010302E0A5EB010633441A440B468242FA
:101F8000F1D370BD0000002008B5FEF7B3FBFFF7EA
:101F9000BBFDFFF7E5FDFFF7EBFBFFF7A1FCFFF74C
:101FA000EBFCFFF7B7FF9C4C4FF4807A01225146BF
:101FB0002046FEF78CFBA0460025DFF860B2984F64
:101FC000984C4FF4007901261E20FEF743FAFEF7E5
:101FD0002FFA012211463846FEF779FB0122022131
:101FE0003846FEF774FB012204213846FEF76FFBEA
:101FF00049464046FEF766FB01280AD0E570257089
:102000006570A57051463846FEF75CFB012870D01C
:102010009CE0E67004218448FEF754FB01282DD093
:1020200084F804504FF400513846FEF74BFB01286A
:1020300026D065714FF480614046FEF743FB0128CE
:1020400020D0A57180215846FEF73CFB01281BD00B
:10205000E57140215846FEF735FB012816D0257260
:102060006079F0B120794FF0000188B14FF47A70B7
:10207000FFF768FB00214FF47A7010E02671D1E77A
:102080006671D7E7A671DDE7E671E2E72672E7E75A
:102090004FF46170FFF756FB00214FF46170FFF7BA
:1020A0002BFDA07998B1207938B14FF47A710020D6
:1020B000FFF748FB4FF47A7106E04FF4617100209E
:1020C000FFF740FB4FF461710020FFF715FDE07949
:1020D000C8B16079A17908430CD020794FF0000194
:1020E00010B14FF4617001E04FF44870FFF72AFB24
:1020F00009E025E000210846FFF724FB00214FF40A
:102100004870FFF7F9FC207A70B16079A179084333
:102110000ED020794FF0000110B14FF4617001E052
:102120004FF44870FFF7E8FC7820FEF793F94BE78F
:1021300000214FF44870FFF705FB00210846F1E746
:10214000002204213846FEF7C2FAA67049463846F6
:10215000FEF7B8FA012805D1002202213846FEF721
:10216000B6FA667051465846FEF7ACFA012805D11A
:10217000002201213846FEF7AAFA2670FFF774FC08
:102180000090FFF777FA0098C82805D8002251463A
:102190004046FEF79CFA17E7012251464046FEF7FB
:1021A00096FA207880B16078F8B1A07818B100BFB5
:1021B000FFF7D0FA08E74FF448710020FFF7C2FAA2
:1021C00000214FF448700CE0617869B1A2785AB1EF
:1021D00000214FF4487000BFFFF7B4FA4FF4487184
:1021E00017E0FFF789FCEFE640B14FF4487100209B
:1021F000FFF7A8FA00214FF46170F2E70029D7D168
:10220000A07800284FF46170E6D1FFF79BFA4FF4F5
:1022100061710020E5E70000000402400000024078
:102220000008024026000020000C02404FEA115333
:10223000A3F58063D3F11E03A8BFD3F1200C08DB04
:102240004FF0004242EAC12252EA505232FA03F001
:10225000704709420BD4102BC4BF0020704703F510
:10226000787CBCF1FF3F05D04FF0FF3070474FF056
:102270000000704770B500F003F900BF4992248058
:1022800000207047F0E700007FEAE17202D1101AE7
:1022900062EB0101B1FA81F30B3B24D3994012D1D7
:1022A000B0FA80F310FA03F108BF7047C3F11D03C1
:1022B00003F5406303EBC2234FEAD1224FEA4150BA
:1022C00002EB03517047C3F1200C20FA0CFC98403C
:1022D000C3F1320303F5406303EBC22341EA0C016F
:1022E00001EB0351704710B5C3F1320CC3F1000488
:1022F000C4F1200E0CF5406C0CEBC22201FA0EFC6E
:1023000021FA04F100FA0EF3E040BDE8104040EA83
:102310000C0001EB025138BF7047401C41F1000135
:102320005B0008BF20F0010070470000DFF848C1E3
:1023300070B51CEA111E1EBF1CEA13159EEA0C0F95
:1023400095EA0C0F00F06F8081EA030423EA4C1336
:102350004EEAD47E21EA4C1141F4801143F48013FB
:10236000AE44A1FB024CA0FB0365AEF17F7E3619A3
:1023700055EB0C05A1FB034C4CF10003A0FB021C28
:1023800016EB0C06654153F10003094218BF46F0F5
:10239000010613F4007F0BD14FEA03314FEA0530F9
:1023A000340341EA155140EA16506FF003020AE087
:1023B0004FEAC3214FEAC520F40241EA555140EAF1
:1023C00056506FF0020202EB2E4201EB025585EAF5
:1023D000CE710AD05FEA440C18BF24F0004450F1DB
:1023E000000041F1000120EAD47040F2FE7C624519
:1023F00000D270BDA84214BF4FF080444FF040445B
:10240000002E08BF0024BEF1806FA8BFA1F1C0411B
:10241000BDE8704080F282804FF0000001F1C041C1
:1024200001F0004170479EEA0C0F0CEA131518BF2B
:1024300095EA0C0F06D04FF0000081EA030E0EF073
:10244000004170BD00F01CF88900013E00F007B8A3
:1024500000F009B84FEA430C5FEA5C5C08D081EAFF
:10246000030100F05BB84FEA410C5FEA5C5CF6D117
:102470004FF00000014970470000FF070000F87F9F
:102480000EF1020E2EF0030E5EF8046B364205D4F8
:10249000012A43EB030515F5001F12D8012841EB73
:1024A000010C1CF5001F0CD80ED14FEAD17C15F59C
:1024B000001F0CEB4C0C0CF1020C08BF4CEBD37C56
:1024C00004E04FF0080C01E04FEAD37C0CEB4C0524
:1024D00026FA05F606F00706B6F1040C06D20EEB56
:1024E000860CBDE870404CF0010C6047DFE80CF052
:1024F000090B02024FF000414FF00000A1F500214E
:1025000070BD19461046012851EB010418BFD4F5DF
:10251000001484BF002001F0004170BD0808A0F540
:1025200000114FEA310170474FF04070E1EE100AA0
:1025300070470000000000000000010203040607CD
:102540000809000064250008000000204400000085
:10255000D4010008A825000844000020F40600006B
:10256000F001000800000000FC60DAF266B6BEE090
:10257000FEF6EE3E9C7A9E8E0100FD61DBF367B7AE
:10258000BFE1FFF7EF3F9D7B9F8F00000000000041
:10259000000000000000000001000000100000002A
:0825A000000000000024F4001B
:040000050800019955
:00000001FF
